:020000041000EA
:1000000000B5324B212058609868022188439860DF
:10001000D860186158612E4B002199600221596106
:100020000121F02299502B49196001219960352056
:1000300000F044F80222904214D00621196600F024
:1000400034F8196E01211966002018661A6600F04E
:100050002CF8196E196E196E052000F02FF8012189
:100060000842F9D1002199601B49196000215960AB
:100070001A491B48016001219960EB211966A021F2
:10008000196600F012F800219960164914480160C1
:100090000121996001BC002800D000471248134993
:1000A000086003C880F30888084703B5996A0420EC
:1000B0000142FBD001200142F8D103BD02B5186610
:1000C0001866FFF7F2FF186E186E02BD00000240BE
:1000D000000000180000070000035F00212200005C
:1000E000F4000018222000A00001001008ED00E03C
:1000F00000000000000000000000000074B24E7A12
:1001000000200420F7010010C3010010C5010010F9
:10011000C1010010C1010010C1010010C101001097
:10012000C1010010C1010010C1010010A1D30410D1
:10013000C1010010C1010010D5D30410EDD404108A
:10014000CD010010CD010010CD010010CD01001037
:10015000CD010010CD010010CD010010CD01001027
:10016000CD010010CD010010CD010010CD01001017
:10017000CD010010CD010010CD010010CD01001007
:10018000CD010010CD010010CD010010CD010010F7
:10019000CD010010CD010010CD010010CD010010E7
:1001A000CD010010CD010010CD010010CD010010D7
:1001B000CD010010CD010010CD010010CD010010C7
:1001C00000BE00BE00BE00BE00BE00BEEFF3058054
:1001D000103800BEF2EB887170F90D1094F90D1013
:1001E0003402001090A31AE700201F49086006C8D7
:1001F00081F3088810471D48006800282FD10DA4FE
:100200000ECC002902D000F012F8F9E71849194A7B
:10021000002000E001C19142FCD1174988471749ED
:1002200088471749884700BEFDE701C901C29A42C5
:10023000FBD3704794F90D10C0000020502E002011
:1002400044270E10000004200000042044270E1054
:10025000001004200010042000000000704709482E
:100260000FF0C4FE0047000008ED00E0000000D0E1
:10027000702E00202454022055E700105505001070
:10028000C9E800105756000006005250ABB3605347
:10029000682D091006005250861C0302782D0910A3
:1002A000060052505422A29D882D0910050052507C
:1002B000DE65F46844270E10F8B5C0460448054BC7
:1002C00010B5834203D0044B002B00D0984710BDDB
:1002D000502E0020502E0020000000000648074944
:1002E000091A8B10C90FC91810B5491003D0044B57
:1002F000002B00D0984710BD502E0020502E00201B
:100300000000000010B5074C2378002B09D1FFF73F
:10031000D5FF054B002B02D0044800E000BF0123AD
:10032000237010BD08310020000000007084081008
:10033000054B10B5002B03D00449054800E000BF71
:10034000FFF7CCFF10BDC046000000000C310020BC
:10035000708408103F4BF0B557469A463E4B4546D1
:1003600098463E4BDE469B463C234E469946E0B5BA
:10037000002600273A4C3B4D83B0A1440122B91915
:10038000890028686118524249F02EFF0128F5D1F2
:100390000136F6B27700282EF0D152462100230014
:1003A0005268E1311269FF31186810605868506076
:1003B00098680C3390600C328B42F5D10DF0BAFB8B
:1003C000002940D0FA22002392000FF0A7FE0190EE
:1003D000504600F0F7FD10F09DFB020006000B00F8
:1003E00021480F0010F0F6FE0DF0A4FB002925D0E7
:1003F000FA22002392000FF091FE019BC11A4046A1
:1004000010F0E8FE30003900184A194B10F0FCF8E3
:10041000002809D0174810F089FD58460023002213
:100420000021006849F0D4FC4846D22249463C38B5
:10043000520088F00DF8232646279FE7FA2189000D
:100440000FF02EFED9E7FA2189000FF029FE019066
:10045000BEE7C0460051022088840810F0570120F2
:10046000F4570120D459012070840810666666662E
:100470006666E63FA0840810F0B54F46D64646466D
:10048000C0B586B003AB9A46264B00249846264B4F
:100490006F469946254D08E0FA22002392000FF09E
:1004A0003DFE040005204BF0DBF8280000F0C6FDFF
:1004B0000028F7D0280000F0B1FF002C09D10DF082
:1004C00039FB0029E8D1FA2189000FF0E9FD040089
:1004D000E8E70DF02FFB00291ED0FA22002392003E
:1004E0000FF01CFE260020368642DBD852462B1D1C
:1004F00013CB13C23B00524613CA13C3404600231A
:100500000A223900006849F063FC34000128C9D090
:10051000484610F00BFDC5E7FA2189000FF0C0FD39
:10052000E0E7C046D4590120BC84081020B2012065
:1005300010B5074C01212068494249F0E3FE012033
:1005400001F084F9FA2080000DF034FAF2E7C04699
:10055000F057012010B586B04A4805AB04AA03A99C
:100560000CF0A4F9002803D1464947480EF0CAF917
:10057000059A049903980CF05DF9444B012200217F
:10058000009306200DF038FE10F030FE1AF0D8FD72
:10059000002812D1FA2080000DF00CFA3C4810F02F
:1005A000C5FC3C4800F0DCFE3B4800F059FA00284E
:1005B0000AD13A4810F0BAFCFEE7394810F0B6FC10
:1005C0000120404206B010BD1AF040FD354810F041
:1005D000ADFC354B354A364936481AF045FD041E08
:1005E0004BD1354810F0A2FC03222100012049F034
:1005F00055FB324B8022186003AB01930123304935
:1006000000933048230092014AF02CFB012802D0CD
:100610002D4810F08BFC04AB8022019303232B495F
:1006200000932B48002312014AF01CFB012802D042
:10063000284810F07BFC05AB802201930223264959
:1006400000932648002352014AF00CFB012802D0F7
:10065000234810F06BFC00220C21642049F01EFBA3
:10066000204B18604AF02CFE1F4C200010F05EFC5E
:10067000FA2080000DF09EF9F7E71C4810F056FCB8
:1006800001209FE788070200C8840810406BED072F
:100690001885081020B20120005102203085081072
:1006A000FC8408106C8508103075000004004000C0
:1006B0008485081090850810AC850810F05701203B
:1006C000B885081031050010C4850810E4850810AD
:1006D00079040010F48508101486081055030010E2
:1006E00020860810D45901204086081098850810EB
:1006F00010B507484DF0FAFE0649074800F076FCB1
:10070000C82206490648120200F098F910BDC046FA
:10071000986F0120B421002020B2012058860810D3
:100720000051022010B504000C22002110F080FAC4
:10073000200010BD7047C046030020291DD0A42210
:100740008258002A19D08069884218D0012A14D012
:10075000986B814218D0022A0FD0986D814215D033
:10076000032A0AD0986F814212D0042A05D0982219
:100770009A5800208A420DD070470020FCE70020E4
:10078000400104301818F7E70120F9E70220F7E7E5
:100790000320F5E70430F3E77047C046C4228258CF
:1007A0000300002A1DD0A820185C88421BD0012A13
:1007B00017D0A920185C88421AD0022A11D0AA208A
:1007C000185C884216D0032A0BD0AB20185C8842F4
:1007D00012D0042A05D0AC229A5C00208A420DD0A7
:1007E00070470020FCE700222C329200D058F7E737
:1007F0000122F9E70222F7E70322F5E70422F3E7F3
:100800000B4B70B5056A083304000360002D08D057
:10081000280008F05DFF9821280010F025FA002339
:1008200023626069002801D010F01AFA200070BD20
:100830008C060910A42370B5C55804000E00002DC5
:1008400045D08369202B28D0012D40D0A36B202BCD
:100850002DD0022D3BD0A36D202B30D0032D36D0D0
:10086000A36F202B08D0042D31D09823E358002506
:10087000202B09D0280070BD3100E06F79F0A0FF77
:100880000028F0D103250EE07C333100E05879F0E8
:1008900097FF0028EED1043505E0C06979F090FF9C
:1008A0000028D1D100256D0104356519E2E731003A
:1008B000E06B79F085FF0028CBD10125F3E731000B
:1008C000E06D79F07DFF0028C8D10225EBE7002517
:1008D000D0E7C0460268030052691B4810B5824247
:1008E00021D120291DD0A4229A58002A19D0986914
:1008F00088421BD0012A14D0986B81421BD0022A57
:100900000FD0986D814218D0032A0AD0986F814287
:1009100015D0042A05D098229A5800208A4210D077
:1009200010BD0020FCE718009047F9E700204001C7
:1009300004301818F4E70120F9E70220F7E7032054
:10094000F5E70430F3E7C0463907001003682B4A87
:100950009B6970B504000D00934240D1A423C65892
:10096000002E48D08369202B17D0012E43D0A36BD3
:10097000202B1CD0022E3ED0A36D202B1FD0032E87
:1009800039D0A36F202B22D0042E34D09823E358E3
:100990000026202B26D0300070BDC06979F010FFF2
:1009A0000028E2D1002676010436A619F3E72900D3
:1009B000E06B79F005FF0028DCD10126F3E7290080
:1009C000E06D79F0FDFE0028D9D10226EBE7290081
:1009D000E06F79F0F5FE0028D6D10326E3E79847CB
:1009E0000600D8E77C332900E05879F0E9FE0028BA
:1009F000D1D10436D7E70026CDE7C0463508001030
:100A00000D4B70B5056A083304000360002D08D053
:100A1000280008F05DFE9821280010F025F9002339
:100A200023626069002801D010F01AF92000242107
:100A300010F01AF9200070BD8C060910064B0261F7
:100A4000083303600023054A43608360C16043614B
:100A50008261C361036270478C0609103C2609104D
:100A6000C368F0B51A68DE46944657464E4645467A
:100A70006344E0B51A6804009A1A11888DB0C36106
:100A8000042902D99288002A0ED1200000221830B1
:100A90000323CD4900F0FAFF00200DB0F0BCBB46A7
:100AA000B246A946A046F0BD9A581830032AEFD1A5
:100AB000206910F0CDF801221700C44E6061337830
:100AC000BFF35B8F1F401A4200D1BFE1C04D04AE9F
:100AD000300004F0D5FFA423EB58002B00D152E2E4
:100AE000AA69112A00D165E1012B00D129E1AA6B85
:100AF000112A00D15EE1022B00D122E1AA6D112A58
:100B000000D157E1032B00D11BE1AA6F112A00D1BC
:100B100050E1042B00D114E19823EB58112B00D1A4
:100B200048E1C823E858002804D01122A949C33B52
:100B300000F0ACFF300002F0B7FFA423EB58002B0D
:100B400000D129E2AA69032A00D151E1012B00D189
:100B5000F4E1AA6B032A00D14AE1022B00D1EDE1B6
:100B6000AA6D032A00D143E1032B00D1E6E1AA6F6D
:100B7000032A00D13CE1042B00D1DFE19823EB589C
:100B8000032B00D134E1C823E858002804D0032205
:100B90009049C33B00F07AFF300003F0B3FEA4237A
:100BA000EB58002B00D1EBE1AA69092A00D13DE105
:100BB000012B00D1A0E1AA6B092A00D136E1022B5A
:100BC00000D199E1AA6D092A00D12FE1032B00D1B0
:100BD00092E1AA6F092A00D128E1042B00D18BE110
:100BE0009823EB58092B00D120E1C823E8580028AE
:100BF00004D009227749C33B00F048FF300005F0DC
:100C0000E7FAA423EB58002B00D1BFE1AA69192A07
:100C100000D101E1012B00D14CE1AA6B192A00D1CE
:100C2000FAE0022B00D145E1AA6D192A00D1F3E0C8
:100C3000032B00D13EE1AA6F192A00D1ECE0042B6E
:100C400000D137E19823EB58192B00D1E4E0C823F9
:100C5000E858002804D019225E49C33B00F016FF73
:100C6000300006F0B1FFA423EB58002B00D190E137
:100C7000AA69162A00D1C5E0012B00D1FCE0AA6BBD
:100C8000162A00D1BEE0022B00D1F5E0AA6D162A8B
:100C900000D1B7E0032B00D1EEE0AA6F162A00D1F5
:100CA000B0E0042B00D1E7E09823EB58162B00D1DD
:100CB000A8E0C823E858002804D016224549C33BC1
:100CC00000F0E4FE98200FF0BFFF0023270006008D
:100CD00002932369183700932A006369E169019739
:100CE00008F094FC3000266208F042FE002800D094
:100CF000A6E00021206A08F021FD43696060984663
:100D00001B683548994610F065FA4B46002B0EDDFE
:100D10005D1E012B37D1314F0135AE00464400E056
:100D20000135380002CE10F055FAA945F8DC2C4800
:100D300010F0FCF80021206A08F056FDA0600120A8
:100D4000ABE65A1C90465B019C46AC446346181DBA
:100D50000200310089C989C289C989C209C909C289
:100D6000112063464246C4219861A423EA506B587F
:100D7000EA18A83210701A001A482C329200013377
:100D8000A8506B50D6E6042343449A46164B0026DF
:100D90009B46124F534602CB38009A46013610F05C
:100DA00019FA584610F016FAAE42F3DB3500B14599
:100DB000B2DCBCE7C823E858002800D1BAE611220B
:100DC0000A4900F063FEB5E63C050910DC57012036
:100DD000A46F0120D405091034060910C824091095
:100DE000EC1409102D1D001044060910840509108B
:100DF000C823E858002800D1CEE60322684900F055
:100E000045FEC9E6C823E858002800D15AE7162253
:100E1000634900F03BFE55E7C823E858002800D19D
:100E20001EE719225E4900F031FE19E7C823E85891
:100E3000002800D1E2E60922594900F027FEDDE64C
:100E40003800584900F022FE002026E630004DF020
:100E50004BF8554D002800D139E6544B54482B60CF
:100E6000A423EF502033EF500433EF5077F0C4FA4F
:100E700030004DF055F82AE65A1C94465B01EB18F9
:100E8000191D0A0083CE83C283CE83C203CE03C260
:100E900016206246C4219861A423EA506B58EA18D0
:100EA000A83210701A0043482C3292000133A85027
:100EB0006B5007E75A1C90465B019C46AC44634666
:100EC000181D0200310089C989C289C989C209C9AE
:100ED00009C2192063464246C4219861A423EA50FE
:100EE0006B58EA18A83210701A0033482C3292005E
:100EF0000133A8506B50B3E65A1C90465B019C46E8
:100F0000AC446346181D0200310089C989C289C9F1
:100F100089C209C909C2092063464246C4219861B1
:100F2000A423EA506B58EA18A83210701A0023481C
:100F30002C3292000133A8506B505FE65A1C904649
:100F40005B019C46AC446346181D0200310089C910
:100F500089C289C989C209C909C2032063464246B8
:100F6000C4219861A423EA506B58EA18A832107083
:100F70001A0013482C3292000133A8506B500BE634
:100F800001229046BAE701229046DCE60122904613
:100F900092E70122944671E701229046D0E7C046CD
:100FA0008405091018060910A46F01206C060910A9
:100FB00035070010F91D0010D11E00102D1C001067
:100FC000551B001010B50400006A08F0A1FD0028B0
:100FD00003D1A3681B69586810BD02480FF0A6FF33
:100FE0000148F9E7480609100000C07F124B802233
:100FF000036000234365002343668366C36603677B
:1010000043678367C367835004328350043283503D
:1010100004328350043283500432835004328350AC
:10102000043283500432835004328350043283509C
:101030000123C1644364704700000669F0B5436C46
:101040000400A5B0002B04D00020012B4BD025B00C
:10105000F0BD0126836CD02758691B687F229E4013
:1010600004AD3F062A802900BE617D3A87F090F9E1
:10107000636C7E6100266A46D673002B1DD1A36C7B
:1010800001245F691B68D0269C409A2236062A708C
:101090002900993A3800B46187F07AF90F220123C8
:1010A000002138006A4487F0E3F874616B46D87B0E
:1010B000013843425841C0B2C9E7012B21D1E26C4B
:1010C000D468177A1A2239002A7020002A00009367
:1010D00012F086FA0F2201233900200000966A449C
:1010E00012F0E6FAE2E7E36C04ADDE68197A7F23DA
:1010F0002A002B8000907D3B300012F071FA636C67
:10110000B8E70020A3E7C04630B5436CA3B0002B7E
:1011100003D0012B12D023B030BD6C46836CD02598
:1011200058691B682172627201249C402D060222BC
:10113000AC6102A987F02CF96C61ECE7C36C1C7AF6
:10114000D8686B4619725A7200232100009302AAD4
:10115000023312F045FADEE770B584B000236A4628
:101160009373436C002B05D00024012B20D020006A
:1011700004B070BD0124836CD0255E691A68802399
:101180000F2094405B42194368442D0601700122F0
:101190000100AC61300087F0FBF80E220123002132
:1011A00030006A4487F064F86B466C619C7BDEE734
:1011B000C26CD568167A0F226A441170280031007B
:1011C000009312F00DFA0E22012300943100280042
:1011D0006A4412F06DFA6B469C7BC8E7436C10B50D
:1011E0000400002B00D08FE0836C18680BF0D0FC5B
:1011F0000123A26C11688B40D02109064B624B6120
:10120000108A43011B1A99000918C900506912F08D
:10121000A5FAC7214C48802302685B015140CF22C8
:1012200003430A401A60A36C0121188A0BF010FCDA
:10123000A36C012198680BF00BFCA36C0121D8680A
:101240000BF006FC012206212000FFF75DFFC820FD
:101250000CF0B0FB20227F212000FFF755FF192260
:1012600001212000FFF750FF032253212000FFF748
:101270004BFF042200212000FFF746FF142120002D
:10128000FFF76AFF06236278984352000243192051
:10129000D2B2024314212000FFF736FF04221121AD
:1012A0002000FFF731FF00227F212000FFF72CFFF5
:1012B00022220F212000FFF727FF244B23662378EB
:1012C000022B3DD015D8002B37D0214BE365637836
:1012D000022B15D0022B06D8002B2AD0E4239B0525
:1012E000A365012010BD032BFBD1E8239B05A3655B
:1012F000F7E7032BEBD1174BE3656378022BE9D1BA
:10130000E6239B05A365ECE7C06C4289C0685301E6
:101310009B1A99008918C90012F038F9E36C03216F
:1013200018680BF095FBE36C032158680BF090FBF9
:1013300088E7E2239B05A365D3E7074BE365C6E790
:10134000064BE365C3E7C04600C00340FFEBBF3F69
:1013500000007A3C00007A3D0000FA3B0000FA3CB5
:1013600010B5FFF73BFF041E04D004480FF0DEFD6C
:10137000200010BD02480FF0D9FDF9E7BC060910A6
:101380009C060910F0B5C64600B50D00416C16006C
:1013900084B0002905D0012927D004B080BCB8460C
:1013A000F0BD826CDCB257691268002CF5D0631E68
:1013B000581E83419B011D4380230F315B426944CA
:1013C0001D430D700125D02395401B069846012230
:1013D0009D61380086F0DCFF2300320000213800D8
:1013E00086F046FF43465D61D7E7C26CDCB2D76842
:1013F000127A90460F226A441570002CCDD00091CD
:1014000001234146380012F0EBF80023320000932C
:1014100041462300380012F04BF9BEE7F0B5DE4636
:1014200057464E4645460400E0B58BB004AA172344
:101430002D21FFF7A7FF04AB188843BAA38504AB9F
:101440005B88C0BA5ABADBBA9A4604AB9B88E2857D
:101450005ABADBBA994604ABDB8822865ABADBBAA1
:10146000984604AB1B8962865ABAA286DBBA04AAE4
:10147000019353895ABAE28604AAD9BA9389029190
:101480005ABAE28704AA9446DDBA0F2363441A7855
:101490005F7811233F0263445E7817431A78132361
:1014A0006344039536025D7816431A782D0215437E
:1014B000A26D3FB2934636B22DB227876687A587C5
:1014C0000FF0D2FA59460FF070FA0FF023FB2F4AB3
:1014D0002F4B0FF044F80FF027F9606050460FF0E3
:1014E000C3FA59460FF061FA0FF014FB274A284B54
:1014F0000FF035F80FF018F9A06048460FF0B4FA75
:1015000059460FF052FA0FF005FB214B1F4A0FF01E
:1015100026F80FF009F9E26DE060914640460FF0C1
:10152000A3FA49460FF041FA206101980FF09CFAA6
:1015300049460FF03AFA606102980FF095FA494671
:101540000FF033FAA06103980FF08EFA236EA062B9
:10155000984638000FF088FA41460FF026FAE0610D
:1015600030000FF081FA41460FF01FFA2062280088
:101570000FF07AFA41460FF018FA60620BB0F0BC37
:10158000BB46B246A946A046F0BDC0461F85EB51FA
:10159000B89E234010B502484CF0A8FF10BDC046CD
:1015A0009C6F012010B502484CF0A0FF10BDC04652
:1015B000A06F012010B5040002480FF00BFE0023BD
:1015C000236010BDE006091010B5040015480FF0A7
:1015D00001FE0123237123680020002B17D018007F
:1015E00000213CF045FE0022002120683CF050FE26
:1015F000002120683CF044FE206800213CF058FEA9
:1016000020683CF08FFE002802D10023236010BD2B
:10161000010005480FF0DEFD20683CF077FE0D204C
:101620004042F2E7F406091000070910F0B5C6467B
:1016300000B505000E00140000AF002A24D0128966
:10164000002A07D120003CF0C5FA0020BD4680BC2E
:10165000B846F0BD13006D460833DB08DB00EB1A1B
:101660009D46E8466946002320003CF00FFC00221E
:10167000414623891A48CA540FF0ACFD3000218935
:101680003CF01AFEAD46DDE716480FF04FFC012393
:101690002B712B680020002BD8D0180000213CF0C3
:1016A000E7FD0022002128683CF0F2FD00212868B7
:1016B0003CF0E6FD286800213CF0FAFD28683CF08B
:1016C00031FE002802D100232B60BFE7010006484D
:1016D0000FF080FD28683CF019FE0D204042F2E733
:1016E00034070910200709100007091070B50D0014
:1016F0001400002938D025480FF018FC280048F0C5
:101700002BF8BC220100FF3221480FF063FDBC2200
:101710002900FF321F4B20683CF0DAFD021E00D189
:1017200070BD1D4B1D491B68D86877F05DF901231A
:10173000206823710028F3D000213CF099FD00229D
:10174000002120683CF0A4FD002120683CF098FDB9
:10175000002120683CF0ACFD20683CF0E3FD011E58
:101760000CD100232360DBE701000D480FF032FDB0
:101770000123206823710028DED1D1E709480FF04A
:1017800029FD20683CF0C2FDEBE7C0466007091068
:1017900078070910A9170010F02300209C070910F2
:1017A000C00709100007091070B511000400002AD5
:1017B0001FD022480FF00EFD01232068237100285E
:1017C00026D000213CF054FD0022002120683CF08E
:1017D0005FFD002120683CF053FD206800213CF0B3
:1017E00067FD20683CF09EFD00281CD1002323608B
:1017F0000FE013480FF09AFBA568280079F09CFFD2
:10180000290082B2012320683CF09AFD011E01D11B
:10181000002070BD0B480FF0DDFC01232068237110
:101820000028CED1F4E7010007480FF0D3FC206870
:101830003CF06CFD0D204042D8E7C046E00709109F
:10184000F40709101C08091000070910F0B5002161
:10185000E7B00500002020F0A9F9704F06AC2B007E
:1018600080216F4A386020000EF042FB200079F0A2
:1018700063FF802102946B4C26AD6B4B6B4A019049
:101880004900280000940EF033FB0C2101200FF0DA
:10189000B1F9061E00D1BDE085602E2138683CF00C
:1018A0008FFE3060002800D1A2E031003CF0E0FC67
:1018B0001E225F4930683CF0EBFC5E4930683CF02A
:1018C000DFFC5D4930683CF0F3FC306820F064F9DF
:1018D000210039F0E7FE210058480FF07BFC1FF093
:1018E00065FA05A933002000554A3BF0D1FB011EE3
:1018F00026D0431D59D11FF063FA3379002B0ED146
:101900000025504C19F004FC0CF014F90019694141
:1019100000290CDB19F008FC3379002BF2D03000E1
:101920000FF07AF9386820F08DF967B0F0BD01202A
:101930004549404219F0F8FB3379002BE2D0EEE73D
:1019400005A847F009FFBC220100FF323F480FF015
:1019500041FCBC223E4BFF32306805A93CF0B8FC8C
:10196000021EC8D03B4B3C491B68D86877F03CF856
:101970000123306833710028BDD000213CF078FC91
:101980000022002130683CF083FC002130683CF0EC
:1019900077FC002130683CF08BFC30683CF0C2FCE6
:1019A000011E30D100233360A5E72C480FF012FC54
:1019B0000123346820682371002816D000213CF0F0
:1019C00057FC0022002120683CF062FC00212068C6
:1019D0003CF056FC002120683CF06AFC20683CF09A
:1019E000A1FC011E08D1002323601FF0E9F99CE748
:1019F0001B480FF09BFA98E71A480FF0EBFB2068A2
:101A00003CF084FCEFE717480FF0E4FB30683CF053
:101A10007DFCC7E714480FF089FA86E7EC570120F0
:101A200038080910EC080910480809107408091052
:101A3000C91500102D160010B51500105409091015
:101A4000ED16001040420F00FFFFFF7F78070910DE
:101A5000A9170010F02300209C0709106409091041
:101A60003C09091000070910200909100130800005
:101A70007047C0460D2803D8024B8000C0587047FD
:101A80000148FCE7140A09108C0909100EB400B5CE
:101A900082B003AA02CA036801929B68984702B009
:101AA00008BC03B01847C0460CB400B583B004AA04
:101AB00002CA036801929B68984703B008BC02B051
:101AC0001847C046130010B50C2836D81F4A8300AB
:101AD000D3589F460C2300200B7010BD0D2300200F
:101AE0000B70FAE701230B70F7E70A2300200B7055
:101AF000F3E7022300200B70EFE7032300200B70B5
:101B0000EBE7042300200B70E7E7052300200B70B0
:101B1000E3E7062300200B70DFE7072300200B70AC
:101B2000DBE7082300200B70D7E7092300200B70A8
:101B3000D3E70B2300200B70CFE700220A700200CE
:101B400003491800FFF7A2FF0120C6E7700A091039
:101B50004C0A091070B51E00136804001B681000C1
:101B60001821042298471822002105000FF060F880
:101B70002368E21A13880A2B48D95189002945D0D5
:101B8000605C012842D10C2B40D99389E218002BCC
:101B90003CD013689C4662441368D11A0B88042B0E
:101BA00037D98C88002C06D01457002C03D0013C68
:101BB0006042444160002870062B2BD9CC8800205D
:101BC000002C00D010596860082B23D90C89002004
:101BD000002C00D01059A8600A2B1BD94889002876
:101BE00018D0105C441E042C14D828730C2B15D963
:101BF0008C890120002C00D0105928610E2B11D99E
:101C0000C9890123002900D053586B613560002039
:101C100070BD2870002028730C2BE9D801232B619C
:101C20006B61F3E701236B61F0E7C046F0B5DE4678
:101C300045464E465746E0B5160083B001931368FB
:101C400004001B68012288463000042198470422C2
:101C5000002105000EF0ECFF2368E21A13880A2B1E
:101C600002D95189002909D10020019B1D6003B0D0
:101C7000F0BCBB46B246A946A046F0BD615C08294F
:101C8000F2D10C2BF0D99389E418002BECD0236807
:101C90009C4664442368E31A1A88042A41D9002028
:101CA0009988824600290FD0615C8A460139C9B201
:101CB0008C4600218B4660465F46043181427F415D
:101CC000504679420840824651462970082A28D950
:101CD00018890021002803D0215C481E8141C9B227
:101CE000A9700A2A08D959890022002903D0625C08
:101CF000511E8A41D2B2EA70DB88002BB4D0E35681
:101D0000002BB1D0012B01D16B70ADE706494046E5
:101D1000FFF7BCFE3368300029005B68984701205C
:101D2000A5E7062AA0D9E7E7A40A091070B51E00A6
:101D3000136804001B6810002821042298472822F9
:101D4000002105000EF074FF2368E21A13880A2BA5
:101D500049D95189002946D0615C052943D10C2B12
:101D600041D99389E218002B3DD013689C46624408
:101D70001368D11A0B88042B38D9888801240028CD
:101D800006D01056002803D0013844426041440078
:101D90002C70062B2CD9CC880020002C00D0105998
:101DA0006860082B24D90C890020002C00D0105921
:101DB000A8600A2B1CD94C890020002C00D0105997
:101DC000E8600C2B14D98C890020002C00D010590D
:101DD00028610E2B0CD9CB89002B09D0D35C5A1E5D
:101DE000042A05D82B753560002070BD01232B70A7
:101DF00000232B75F7E7C046F0B5C64616001F0056
:101E0000136804001B68042200B5884630002421B2
:101E100098472422002105000EF00AFF2368E31AE8
:101E20001A880A2A02D95989002904D100203D6064
:101E300080BCB846F0BD615C1129F7D10C2AF5D9F8
:101E40009B89E418002BF1D023689C4664442368E6
:101E5000E31A1A88042AE9D998880028E6D02418B9
:101E600023689C4664442368082B21D8002B1DD08E
:101E700062682A60012B19D0A2686A60022B15D013
:101E8000E268AA60032B11D02269EA60042B0DD00E
:101E900062692A61052B09D0A2696A61062B05D007
:101EA000E269AA61072B01D0226AEA612B62BDE7D1
:101EB000054A06494046FFF7E9FD3368300029002E
:101EC0005B6898470120B3E7D00A0910D80A0910C7
:101ED00070B504001D0013681000042104221B6863
:101EE0009847002123680160E21A13880A2B19D948
:101EF0005689002E16D0A65D092E13D10C2B11D9B0
:101F00009389E418002B0DD023680A1C9C46644476
:101F10002368E31A1E88042E03D99B88002B00D067
:101F2000E25802602860002070BDC046F8B5CE4679
:101F300047461E000023040080B533600F00914621
:101F400008F0C4F9012123680500E31A1A888846BD
:101F5000082A02D91989002912D1832D14D8202DDD
:101F600019D03B6842461B68290038009847030097
:101F700030600020002B28D0C0BCB946B046F8BD68
:101F800061588846832DEAD92A0048461449FFF74C
:101F90007DFD0120F0E7062A11D9D98800290ED04D
:101FA0006418236842469C463B6864445B6838007A
:101FB000211D9847306043425841C0B2DCE7484693
:101FC0000849FFF763FD0120D6E7074BAD005A59DA
:101FD000484643460549FFF759FD0120CCE7C04676
:101FE0001C0B0910A80B0910DC110910700B09104B
:101FF000F8B515001C000022002306000F000EF0AB
:10200000EDFA002803D000232B602360F8BD2200E6
:102010003000390086F0CCF90022124B0EF09FFA06
:102020000EF0DCFB0EF05CFB002918DC13D08023E3
:102030001B06984207D023681F3302DA00230020D2
:1020400023602860E2E70029F5D180202368C005DD
:1020500001332360F0E780231B069842E7D976F02E
:10206000C3F9C0460000E041F0B5C6460400802038
:1020700000B582B0009201930A9B00069846089B27
:102080000D00D8400EF0E0FA009A019B06000F0008
:10209000200029000EF063FA02000B003000390026
:1020A0000EF05DFA2A4A2B4B04000D000EF0B4FA34
:1020B000061E17D1002220002900274B0EF0ACFA93
:1020C00000282ED000220023200029000EF086FADE
:1020D000002809D0099B1E6043461E6002B080BCE8
:1020E000B846F0BD1A4C1B4D42462000290086F030
:1020F0005FF90022194B0EF032FA0EF06FFB0EF072
:10210000EFFA00290DDC1ED080231B06984210D068
:1021100043461B681A001F3205DB099A1060002B2A
:10212000DCDA76F061F9002342461360099A136005
:10213000D4E70029ECD14346424680201B68C00505
:1021400001331360E6E780231B069842DCD9E8E7F9
:102150000000C0FFFFFFDF410000F03F0000E04152
:10216000F8B5CE46012381464746180098464B46AF
:10217000984080B5013816000F000EF065FA4B4606
:10218000F21A20235B4204000D00D31826D44146E6
:1021900099400126300090400EF09AFA0B000200A0
:1021A000290020000EF0DBF920235B4204000D0023
:1021B000FB1818D4310099400120B8400EF088FA7D
:1021C00002000B00200029000EF0AFF90EF056FBC4
:1021D0000EF052FAC0BCB946B046F8BD20234146C5
:1021E0009B1AD940D5E720233100DB1BD940E3E718
:1021F0000B6810B502CB002A0EDB8A420CDA920083
:10220000D158002908DB8368002B02D04801181838
:1022100010BD036D9847FBE70020F9E74B6810B548
:1022200002CB002A0EDB91420CDD9200D15800292E
:1022300008DB8368002B02D04801181810BD036D1D
:102240009847FBE70020F9E70B6810B502CB002A9E
:102250000EDB8A420CDA9200D158002908DB836831
:10226000002B02D04801181810BD036D9847FBE7FA
:102270000020F9E7F0B5CE46474680B51C008B68D4
:1022800005009846936883B09946002C2BD04046B1
:102290000EF040FC060048460F000EF03BFC02002A
:1022A0000B00300039000EF05AF90600A0680F004C
:1022B0000EF030FC02000B00300039000EF02BF95C
:1022C0000A9B060098684C000EF024FC640802008B
:1022D0000B00300021000EF028F91C4A1C4B0EF0B8
:1022E0008BF9002821D0494640460EF05EFB0021C4
:1022F000041C0EF09FFB002822D0201C0EF00AFCCC
:102300000A9B040098680D000EF004FC0B0002000C
:10231000290020000EF009F90B9B1860596000207D
:1023200003B0C0BCB946B046F0BD0A4B009336239B
:102330006C69FF332800084A0849A0470120EFE7ED
:10234000074B0093A1236C695B00F3E77B14AE4756
:10235000E17A943F8C140910F013091074140910D9
:10236000B0140910F0B5C64600B5147F1D0082B048
:10237000032C38D0092C1ED0072C0FD1354E364CEB
:102380009368D768984601291DD0032933D00229C4
:102390004ED0089B2C6000201E6008E02F4B304A76
:1023A0000093762344692F49FF33A047012002B0F0
:1023B00080BCB846F0BD802493687F269846D768D5
:1023C00064420129E1D1191C00200EF0DAFA0EF066
:1023D000E1FB0EF06BFBC719A74207DB089B2F60E0
:1023E0001E600020E3E7FF260024C9E72700089BC2
:1023F0002F601E60F5E7191C00200EF0C2FA0EF0E7
:10240000C9FB0EF053FBC019A04200DA2000414680
:10241000286015480EF0B5FA0EF0BCFB0EF046FB36
:10242000C719B74200DD3700089B00201F60BEE7D8
:10243000191C0E480EF0A5FA0EF0ACFB0EF036FBA0
:10244000C019A04200DA20002860FE204146800525
:10245000E0E7C046FF7F00000080FFFFCC140910BA
:10246000F0130910741409100000C040000080BF70
:10247000F0B557464E464546DE46E0B50F780400B7
:102480000D0016009A468FB0012F14D0012303933C
:10249000BE4B02970193BE4BBE4A00934569D123C0
:1024A000BD49A847012738000FB0F0BCBB46B24673
:1024B000A946A046F0BD1378012B0BD00293B34B75
:1024C00003970193B54BB34A00934569D323B249AF
:1024D000A847E8E75368002B00D1E7E01A68904668
:1024E000002A00D1CCE01168012922DDFD202A7FDD
:1024F000073A024208D0AA4B200000936569E32303
:10250000A44AA849A847CEE7327F092A00D0BFE0F5
:10251000209A8A4200D1D1E0A34B03920193A34BAE
:10252000029100932000E62365699A4A9A49A847D8
:10253000B9E7189BA8689F68209B002B30DD0EF040
:10254000E9FA06900791381C0EF0E4FA0DAB9B46B1
:102550005A460CABA946A346002744461D00B04688
:1025600016000490059160680EF0D4FA069A079B55
:102570000DF0F5FF049A059B0DF0D7FF33002A00FC
:10258000FFF736FD1E9A0C99BB00D1501F9A0D998A
:102590000137D150209BBB42E5DC5C464D464646A8
:1025A0002B7F032B05D0092B5FD0072B5DD0002795
:1025B00079E7AB689846B36899465346002B2DD00F
:1025C00040460EF0A7FA060048460F000EF0A2FAA9
:1025D00002000B00300039000DF0C1FF5346060029
:1025E00098680F000EF096FA02000B0030003900D8
:1025F0000DF091FF189B070098684E000EF08AFAC4
:10260000760802000B00380031000DF08EFF684A9A
:10261000684B0DF0F1FF002800D1A0E0494640468C
:102620000EF0C3F90021061C0EF004FA002800D1B8
:10263000A0E0301C0EF06EFA189B060098680F00A0
:102640000EF068FA02000B00300039000DF06DFF4B
:102650001A9A0DABFFF7CCFC0D9B1B9A5B421360E3
:102660002B7F092B01D0032B9FD1199B20001978B8
:102670001D9B189A00931C9BFFF774FE070012E73E
:102680004D4B444A00934569DF234649A8470AE772
:1026900009230393494B02920193494B2000009375
:1026A0006569E5233B4A3C49A847FCE6454B394A66
:1026B00000934569DE233B49A847F4E672699B68AD
:1026C00094469B0063445B68209A9A420CD0039323
:1026D0003D4B02920193344B200000936569E72340
:1026E0002C4A2D49A847DEE64346A86804330493E4
:1026F0000EF010FA189B0890099198680EF00AFAEB
:10270000002398460DAB9B460CAB002799460690DC
:1027100007910A940B964446D846AB46089D099EFD
:10272000049B0134D8590EF0F5F92A0033000DF05E
:1027300016FF069A079B0DF0F8FE43464A46FFF740
:1027400057FC1E9B0C9ADA511F9B0D9ADA51209B65
:102750000437A342E4DC5D460A9C0B9E20E71B4B3A
:1027600020000093362365690A4A0E49FF33A847C3
:10277000012798E6164B20000093A1236569054ABE
:1027800008495B00A84701278DE6C046F0140910F0
:102790000C150910F0130910D4140910281509108C
:1027A0007415091074140910CC150910DC150910E2
:1027B0007B14AE47E17A943F58150910B015091003
:1027C000BC15091044150910001609108C140910C5
:1027D000B014091010B53821836B984710BDC0465E
:1027E000F0B5DE4657464E464546E0B5FFB01D0003
:1027F000889B14009B468A9B4A6999460B698246CE
:102800007B927A93012A02D1012B00D130E2206918
:102810001BB21E90A06918931F900423E75E082640
:10282000885F0023E65EE36A20902293236B0420F6
:10283000095E2393636A12B22493A36A21916EA85E
:1028400029001792259305F061F82B68594668A86E
:10285000269305F05BF85B461B68899962A827936D
:1028600005F054F8899B49461B685CA8199305F04C
:102870004DF84B46002B01D01B6899466E9968981D
:102880005C9B052900DDD7E06F9C5D9A052B00DD80
:102890001268A246944200DD9246052900DCDBE185
:1028A0006F9AD268052800DCCFE1699CE568A846EC
:1028B000954200DD90462468052B00DCB7E15D9A67
:1028C000D2680B94944200DD0B92052900DCCAE12A
:1028D0006F9A516892681B911A92052800DCBDE13D
:1028E000699A5168926812910D92052B00DCA0E163
:1028F0005D9A5168926809910C925246002A00DC58
:102900005CE2002900DC59E20C9A002A00DC42E17A
:102910000B9A002A00DC3EE100239B467B422E936B
:1029200073422F935346C24698462E9B139300231F
:102930000E934B46D946C34698468A932F9B4246F0
:102940000A9300230F935B46D046CB4692469946A6
:102950008A9200235D4646460893129B002B00DCBA
:102960005DE1719A729B110059431798089C484386
:102970002A90139870998446694361444A430A999E
:10298000A8468C4662445A4310926C9A11002992D0
:102990006B9A4A43110028926A9A62435143189AEB
:1029A0008B465A4300232B9200241F0002000D9BEC
:1029B000002B46DD5B461493109B169715930A9BDC
:1029C00000251900170010E0189B2B9A9C466144C3
:1029D0009446159B299A634494461593149B01359C
:1029E000634414930D9BAB4229D00029ECDB1A9B66
:1029F0008B42E9DD002FE7DB1B9BBB42E4DD002EB1
:102A0000E2DD1598269A84461498624484462D92F5
:102A1000279A002362442C92169A94462D9AD056F7
:102A20001E9A801A2C9AD25601334243A4189E4211
:102A3000F4D163461693C7E76F9A146825E73A0006
:102A4000169F179B2A999C4662448C46109B01371F
:102A500063441093289B9C46129BE3449F42A6D15B
:102A6000199B4546002B00D1DEE01A00089B9B0015
:102A7000D258944610926444249AD058259AD25839
:102A8000D343DB171340002A00DCBFE000220027FD
:102A9000904693469C40A04200D19DE02200E3175F
:102AA000C1170DF04BFF02000B1E00DB8AE0012175
:102AB000D0484942109011911098119980185941AD
:102AC000CB175B005B081C9300231D931C9B1D9C74
:102AD000C01861414A00C00F024301204146D3178C
:102AE00003401140FF180E9B5E989C4668435F9B15
:102AF000604458430F9B089C9C46609B604458432D
:102B000054440123B94200DC002301215B420B4005
:102B100059460A419B181F9A9446229A634493424D
:102B200000DA1300239A934200DD13002354089B1C
:102B30000B9A013308939A4200D00EE721990A9A22
:102B40008C460F9B62440A920C9A0133AB46B04606
:102B50000F93934200D0FCE6524620994B468C4698
:102B6000C2468A929046139AD94662449B460E9B6F
:102B70001392099A01330E93934200D0DEE6434646
:102B8000D8468A93CB46994601239C46E344D845D0
:102B900000DDCAE65C9B052B00DD0FE1629B052B87
:102BA00000DD0BE1689B052B00DD07E16E9B052B2B
:102BB00000DD03E100207FB0F0BCBB46B246A94671
:102BC000A046F0BD80200021C00512184B41110025
:102BD0005B00CA0F1A4380E7E317220019002000A8
:102BE0000DF0ACFE020080200B000021C00510900B
:102BF0001191002B00DA08E1802109068C4200D0F7
:102C00005AE7434659007C4A49086CE752429346CA
:102C1000012259468A40013A904657103AE7199BDB
:102C20000024002B00D020E7089B9B0024E7609A3B
:102C300047E65E9A09925F9A0C925246002AADDDF1
:102C4000099A002A00DD5FE6A8E76C9CA046944242
:102C500000DD9046699C2FE6729A23E66A9A1292EA
:102C60006B9A0D9241E6709A1B92719A1A9234E611
:102C7000236944A85B427493A36975938B68779327
:102C80004B685946089376936368799323687893E1
:102C9000E36A7C93236B7D93636A3093A36A3193D9
:102CA00004F034FE29004AA804F030FE494650A83A
:102CB00004F02CFE899956A804F028FE4A9B449FF4
:102CC0009C46509B08936346052B7BDD4B9B1A6803
:102CD000089B052B74DD519B1B689A4200DD1A008E
:102CE0006346052B00DC89E04B9BDB68052F7CDD10
:102CF000459EF168994200DD82E033680898052816
:102D000071DD519EF668B34200DD330066463492B1
:102D1000052E63DD4B9E7068B66835903696379108
:102D200038AE3893052F54DD459F7868BF687060D2
:102D3000F1603CA98846012140464092089AB7605C
:102D40003C9141608160C36040AF052A3CDD519AEF
:102D5000516892687960FB600023616BBA603293BE
:102D60003393002904DB534650465B6C98473290FE
:102D70005A46484689992B6812680968002801D08C
:102D800000688146484604914146069003910292AC
:102D90000093059734AB019630AA74A932A807F0C6
:102DA00095FC569B052B09DC509B052B06DC4A9BAA
:102DB000052B03DC449B052B00DCFBE675F014FBC4
:102DC000519B8AE74B9A83E7529A08927A60539A0A
:102DD000C1E74698479F09907060A9E74C984D9EBF
:102DE000099035909AE7549E8DE74899994209DCFD
:102DF000459B83E7010000C0FFFFFF7F4E9B75E707
:102E000019007AE71900459B78E7012102484942F9
:102E100010901191F0E6C046010000C0F0B5DE460A
:102E2000574645464E46E0B5CB68B3B00022040095
:102E30000D009A468E68FFF7DBF901222900070092
:102E40002000FFF7D5F90022804629002000FFF777
:102E5000E5F98346002F00D109E1796904C91C9284
:102E6000052A00DD5AE192001DA80DF0E7FE5B4641
:102E7000002B00D100E15B69190004C99946229238
:102E8000052A00DD4AE1920023A80DF0D7FE239A1F
:102E90001D9B934200DD1300109318934B467A69F3
:102EA0009B689168D26819931292269A4B46944671
:102EB00014924246DB68526911910A9391681A9301
:102EC00063461591D1681B93536820989B009946DF
:102ED00013901691179019002000A36B9847A36BCD
:102EE00070624946200098472B68B0621B68023B1D
:102EF000012B0FD98A4B2000009365695723894A1B
:102F00008949A847012033B0F0BCBB46B246A94668
:102F1000A046F0BD6B681B68012B0ED00122029306
:102F2000824B20000193824B0392009365695823E2
:102F30007C4A8049A8470120E5E75246107892680C
:102F4000129B914652460A93119B52680B93159B14
:102F50000C929C465346524616991B6901395943B7
:102F60004B1C52690D93012800D192E0022800D039
:102F700086E06346013B53430B980133484449467E
:102F8000C01A0F930DF064F80C99431E8C460A98F2
:102F90000E930D9B6044C01A0DF05AF8431E48462C
:102FA0000E9A397F42430F9884460B986244121A56
:102FB000D043C01702400C98584303000D98844634
:102FC0000A9863441B1AD843C01703405810306056
:102FD00050107060012003401040B360F060012980
:102FE00000D192E0002229002000FFF701F9012220
:102FF00029000A902000FFF7FBF8022281462900F1
:103000002000FFF721F9002229000B902000FFF794
:1030100005F94A4653690A995A6833000892B26A18
:1030200030330792726A0593043B04930C3B03937D
:10303000043B029353460C330692019300904A4698
:1030400020000B9BFFF714FA002800D05BE74246F4
:10305000D268397FFB6872615A46D2683361B261C7
:1030600009292CD001235B42002073634BE75B46A8
:103070001C97002B00D0FEE622935B69994606E779
:103080006346013B534301330F9301235B420E938D
:1030900085E76346013B53430B9801334844494657
:1030A00001380F930CF0D4FF0C99431E8C460A98FC
:1030B0000E93604401380CF0CBFF431E6FE75B4278
:1030C000289353469B6829922B9353465B6810A91B
:1030D0002A9353465B6914AA2F9353461B6928A869
:1030E0000A932E9373682D9333682C93F36A30936D
:1030F000336B319318AB07F03FFB011EB2DD32009A
:103100002000236C34329847FDE6FB683361434668
:10311000DB6873615B46DB68B361A3E775F064F954
:10312000CC1609104016091074140910341C09102B
:10313000F0160910D4140910F0B5DE464E46454687
:1031400057468A46E0B50B68CD68F9B05968436DBB
:103150000400984753461B68060099682000636D79
:103160009847534600221B6890461A688146032AF6
:1031700004D1D9682000636D9847804653465B6848
:1031800020005968636D9847337A027A07009342AA
:1031900014D00293B34B03920193B34B20000093DE
:1031A000D3236569B14AB2495B00A847012079B0D1
:1031B000F0BCBB46B246A946A046F0BD4A46107ACE
:1031C000984205D020006369AA4998470120EEE79C
:1031D00053469A6803280FD0092800D1A2E201289B
:1031E00000D14BE16569FEF745FC337A0200A24944
:1031F0002000A8470120DAE71369146A189353697D
:103200005AA81993936926930021535E06930421CB
:10321000535E9A4604216B5E279308216B5E2893C8
:1032200010216B5E0A9314216B5E31000B93D369FE
:103230009B4663422293D36A2993136B2A9304F02B
:1032400065FB3368494660A8239304F05FFB4B4657
:103250001B68414666A8249304F058FB43461B684C
:1032600039006CA82B9304F051FB3B68002172A835
:103270002C9304F04BFB5A9960986C9A052901DC59
:1032800000F004FC5B9B1D686D9B052A00DD1B683C
:103290001E959D4200DD1E93052900DCEFE35B9B3C
:1032A000DB68052800DCE3E3619DEE68B1469E42E1
:1032B00000DD99462D68052A00DCD7E36D9BDB68AD
:1032C0001D959D4200DD1D93052900DCC9E35B9B34
:1032D00059689B6813912593052800DCB8E3619B2E
:1032E00059689B6811910893052A00DCABE36D9B3C
:1032F0005A689B6820921A931E9B002B00DC6FE398
:10330000E343DB171C400123A340013B5A102E93DB
:103310005B005B081F93209B2D941592002B00DC13
:103320005EE31A9B002B00DC5AE31D9B002B00DCA4
:1033300056E300230E9353465B423193069BDA46D5
:103340005B4230935B46DB17CB469946319B129329
:1033500000231C93309B0F9300231B93229BDB4382
:10336000DB173293229B329AC84613402F930023D7
:103370000993119B002B00DC5AE35D9B5E9A1900B8
:1033800051430B98639C48435C990D900E9800251F
:1033900041431298844661444B430F998C4664998B
:1033A00063444C43A1460C91099C62995343614389
:1033B0004C464C430A9927005143CC4600221091B9
:1033C0000899002900DC7FE20021894606976146C2
:1033D000079314974F4699465B460F9EAB46339131
:1033E000050010001A0011E00A9B10999C466644E3
:1033F0008C46079B0C9963448C460793069B0137C8
:1034000063440693089BBB4200D154E2002EEBDBE1
:10341000259BB342E8DD002DE6DB139B9D42E3DAFA
:10342000002AE1DD0799239B8C46069963448C466C
:103430001793249B002463441693149B21959C4668
:10344000179B199D195D189BC91A169B1B5D0134AA
:103450005B1B4B43C0189442F2D16346219D1493E9
:10346000C2E7C046041709101417091040160910C6
:10347000D414091020170910DC1709102B7B012B1D
:1034800000D1FEE2032B00D110E2022B00D107E2B3
:10349000AB4B0D93AB4B0C930021535E54A89A4653
:1034A0000423D45E0422AB5E31002B930822AB5E72
:1034B0002C931022AB5E11931422AB5E129304F096
:1034C00025FA336849464EA82D9304F01FFA4B465F
:1034D0001B68414648A82E9304F018FA43461B681F
:1034E000390042A82F9304F011FA3B6800213CA850
:1034F000349304F00BFA4E9A549B1E92429A1D93F9
:103500001592052B00DCC9E1559B1A68159B052B0C
:1035100000DC12E1439B1B6823929A4200DD239357
:103520001D9B052B00DCB7E1559BDB681E9A052A25
:1035300000DCAAE14F9AD1680B91994200DD0B9310
:103540001268159B052B00DC9DE1439BDB682292F2
:103550009A4200DD22931D9B052B00DC89E1559BDF
:103560005A689B68149232931E9B052B00DC7BE10A
:103570004F9B5A689B680E920993159B052B00DCA4
:103580007CE1439B5A689B6828921F93239B002BE6
:1035900000DC4BE1469E569B52992196289E9C4604
:1035A0001391579B589A509F51984499459D002ECE
:1035B00000DC3BE11F9E002E00DC37E1229E002E46
:1035C00000DC33E16943219E47434E43369666460D
:1035D0005E433100514335911900564661434942DB
:1035E0005343891B219E51436E432C9D24915D437F
:1035F00037952B9D1399554339950D007D431895AB
:10360000129D41435D43119B3896534316930B9B88
:103610001A959B00209300232593309363423B939C
:1036200053465B4219913A933B9B0F93249B2693FD
:10363000259B2793002333933A9B2993269B109332
:10364000279B2A930023319334992A9A8A469446D9
:1036500093009A442F9B57469946229BCA4663443F
:103660008C469B0063441793002304930E9B002B0E
:1036700000DCF6E0049B00269946109BC8460693A2
:1036800000239B460F9D099B002B61DD4346089359
:10369000069B0793299B994600230A932B004D46CE
:1036A000B1465E46BB461F0012E0119A1699944639
:1036B00065448C46079A139962448C460792089A8F
:1036C0000A9B62440892099A01330A939A423BD0BA
:1036D000002DEADB329BAB42E7DD002FE5DB149BDC
:1036E000BB42E2DD0B9B002BDFDD2D9A079B94464E
:1036F0002E9A9B006344944600241C93089B9B00D5
:1037000063441B931B9B19591C9B18590DF04DF9D1
:10371000011C301C0DF032F9209B0434061C9C4225
:10372000F0D1C2E7434601934B46290000932000A5
:1037300033000297FFF754F839E5439BECE6C046A7
:10374000FFFF7F7FFFFF7FFF3D005F46B3464E4692
:10375000129B1A9A9C4665449446069B0136634424
:103760000693199B9C460E9BE0449E428BD12F9B57
:10377000002B74D05346186859460DF0FFF80C9989
:10378000041C0DF049F9002800D00C9C0D99201C58
:103790000DF058F900285FD110C704239C46189AF1
:1037A000E2449446049B63440493179BBB4200D0BD
:1037B0005CE721992A9A8C46399962448C462A9270
:1037C0002B99109A319B62448C461092299A0133AE
:1037D000624429921F9A31939A4200D034E72C997F
:1037E0000F9A8C46389962448C460F923799279AE3
:1037F000339B62448C462792269A01336244269278
:10380000289A3393934200D016E73699259A8C462E
:10381000359962448C462592249A309B62442492C6
:10382000239A01333093934200D0FDE63C9B052B55
:1038300000DDE5E0159B052B00DDE1E0489B052B55
:1038400000DDDDE01E9B052B00DDD9E01D9B052B77
:1038500000DDD5E00020AAE40D9B08C79DE700200D
:103860008AE700239B4682E7509B0E93519B099366
:1038700083E6569B1493579B329375E6449B28939B
:10388000459B1F9382E6469B61E6529A0B929A42B1
:1038900000DD0B934F9A54E6589B47E6559A35E660
:1038A000FE239B050D937B4B0C93F5E57A4B0D9313
:1038B00000230C93F0E51100339B02009C46280086
:1038C0004B465D468B46149F0B99013589460D99F1
:1038D0004844894611994B4467448D4200D06FE5B6
:1038E0002B99002903D0099B9B00CB58D2182F9B02
:1038F0009A401600924500D184E0D11743465246C3
:1039000030000DF01BF804000D1E00DB92E00123D7
:10391000624A5B4212196B41D91749004908049168
:10392000002105910498059912184B4111005B0084
:10393000CC0F1C430123E2171A40159B2E999C467D
:10394000214062440E9B6E982C9D58431C9B9C46C4
:103950006F9B604458431B9B9C46709B604458433C
:10396000099B9C4601236544914200DC002301220F
:103970005B4213402D9A1441269A1B199446299AAA
:103980006344934200DA13002A9A934200DD130045
:103990002B54099B1D9A01330993934200D0E8E40C
:1039A00027990F9A8C461B9B62440F921A9A0133F7
:1039B000C1461B939A4200D0D4E42899129A8C46AF
:1039C0001C9B62441292209A01331C93934200D0B4
:1039D000C0E40E9B1E9A01330E93934200D0B5E4CF
:1039E000729B052B0CDC6C9B052B09DC669B052B65
:1039F00006DC609B052B03DC5A9B052B00DC29E7CA
:103A000074F0F2FC52464346504641460CF096FF95
:103A1000802204000D000023D20500291DDB802137
:103A200009068E4200D075E7159A1F991C4C89E74C
:103A3000002255E780220023D205A4185D416B00C7
:103A4000E40F1C4376E76E9B20936F9B1A9353E41D
:103A5000629B1193639B089346E401230F4A5B42E8
:103A6000DDE75C9B13935D9B259335E4709B27E416
:103A7000649DA9469D4200DD9946619D1BE45E9BC5
:103A80000FE4084B0D9300230C9305E55B9DFFF7B6
:103A9000FBFBC046000080BF0000C040010000C02A
:103AA000FFFFFF7FFFFF7F7F020030B5034B32CB6C
:103AB00032C232CB32C212CB12C230BDF81709105B
:103AC00010B52421836B984710BDC046F0B5DE4683
:103AD00057464E464546E0B58B6897B09A46CB6848
:103AE00000220D0099460400FEF782FB2900060023
:103AF00001222000FEF77CFB2900022207002000A3
:103B0000FEF7A2FB2900804600222000FEF786FB7C
:103B10000500307F2B7F83421CD13A7F9A420DD023
:103B2000636920004C49984701239946484617B0DD
:103B3000F0BCBB46B246A946A046F0BD4B461B783A
:103B40005146059301235B424B61012A17D10023A3
:103B50009946EBE76769FDF78DFF0600287FFDF7C3
:103B600089FF3E4B039001933D4B200000933D4A5B
:103B700069233D490296B84701239946D6E70022BA
:103B800000231092119310AB01939B463A004346D9
:103B9000310020000095FEF76DFB81460028C5D15D
:103BA0001098119952460AABFEF722FA52460A9B28
:103BB00020005B42536053460C3300932A00059962
:103BC000043BFEF7CFFB81460028AFD15346F26895
:103BD0009A61FA68DA61EA681A62337F092BB6D112
:103BE0004346002BB3D01B69002BB0D0796940C984
:103BF0000A96052E2EDCB2000BA80DF01FF85B46CE
:103C0000696904C91A60052A24DC920011A80DF024
:103C100015F8202202AB9B18B6009B5906A8069304
:103C20000123079308935B469B680593099306F06D
:103C300017FE011E09DD52462000236C14329847FE
:103C4000002800D172E7814670E7012352465B42AB
:103C500053616BE774F0C8FBC8180910041709100A
:103C60001417091018180910AC180910F0B54546BA
:103C700057464E46DE46E0B5E5B06E9E1D00336801
:103C800080460F001400002B00D194E06F993AA8F1
:103C900003F03CFE3A9B052B00DD77E03B9B2900BF
:103CA0009A463C9B40A8994603F030FE409A531E2A
:103CB000052A00DC78E0419A9B009B589B46210036
:103CC00046A803F023FEBB695A465B4235933B6A24
:103CD0002C923793FB692D925B423693BB684A4620
:103CE0003893FB68012139933B68012020937B685E
:103CF00030925B4221935346299301232A932B93BD
:103D00002E932F932693329333934B4627923493DB
:103D1000524600232490259179693192229323936E
:103D2000002903DB4046436C984722906F98236834
:103D30002A683168002800D190E100680491099058
:103D400024A90690029231A82DAA05900391019210
:103D5000009320AA29AB35A922A806F03FFD002830
:103D600000D00AE1469B052B00DD04E1409B052BBA
:103D700000DD00E13A9B052B00DDFCE0002065B092
:103D8000F0BCBB46B246A946A046F0BD3B9B29000D
:103D90001A685B6840A89246994603F0B7FD409ABE
:103DA000531E052A00DD86E740AA94469B00634423
:103DB0005B689B4683E78B695EA80993CB690A938E
:103DC0000B6A0E930B689B464B6898465B421E93AA
:103DD0008B680F93CB681100109303F097FD2900B7
:103DE00058A8246803F092FD2B68310052A8129362
:103DF00003F08CFD33686F994CA80C9303F086FD9B
:103E00006F9B002B01D01B686F934C9A58994D9B68
:103E1000052A00DDE0E01C934E9B1D934B1E0529F7
:103E200000DCE1E059999B005B589A461C9B002BF3
:103E300000DC94E04346DB434146DB171940012395
:103E40008B40013B1191169359105B005B081A934C
:103E50001D9B1391002B00DC81E09C4600231793EF
:103E60001B935B46DB1798461E9B5646DB43A246D8
:103E7000C1466F9ADB1762440B921F931E9B1F9AD9
:103E80006F9D13400D93179B0C9F9C4600239846F3
:103E900065440024002E10DD0022AC4612994144F6
:103EA00088560A9B099DC01A53469B5601325B1BDC
:103EB0004343E4189642F3D165460C9B002B02D095
:103EC0003B689C4664440D9B9C40A34500D192E016
:103ED0005A464B462000E1170CF030FD02000B1E45
:103EE00000DA9EE080200021C00512184B4111002D
:103EF0005B00CA0F1A430121D3170B401399169880
:103F00008C46104063440121984200DC00214B4262
:103F100001210B4011990A419B180E9A94460F9A61
:103F20006344934200DA1300109A934200DD1300B9
:103F30002B700B9B01350437B044AB42A9D11D99BE
:103F4000179A8C46624417920B9A1B9B62440B9201
:103F50001C9A01331B93B24493428FD14C9A052A89
:103F600009DC529B052B06DC589B052B03DC5E9B72
:103F7000052B00DC02E774F037FA43466F985F695F
:103F8000006821682A6833686F90049324AB069018
:103F9000039331A82DAB059002920193009129ABB8
:103FA00020AA35A922A806F019FC00230393384B58
:103FB00002900193374B40460093374AC723374955
:103FC000B847469B052BD6DC409B052BD3DC3A9BA0
:103FD000052BD0DC0120D2E618685B681C901D938D
:103FE0004B1E052900DD1DE758A98C469B00634444
:103FF0005B689A461AE75A464B46584649460CF0C3
:104000009DFC02000B1E23DB80200021C0051490C4
:104010001591802109068C4208D1139B1A98204AD9
:1040200071E701211F484942149015911498159980
:1040300080185941CB175B005B0818930023199334
:10404000189B199CC01861414A00C00F024352E7F7
:1040500001211448494214901591DAE70690049121
:1040600031A824A902922DAA0590039101920093F0
:1040700020AA29AB35A922A806F0B0FB002800D160
:1040800070E6434621685F692A6833686F987CE769
:1040900090190910A419091018180910D41409103E
:1040A000FFFFFF7F010000C0F0B5DE4645465746E2
:1040B0004E46E0B5CB680E0098460B68E9B05968EB
:1040C000436D0700984733680500996838007B6D99
:1040D000984733680490D96838007B6D98477368B7
:1040E0000390596838007B6D98470400287AB168BE
:1040F000032814D0092800D100E101282FD07C69C1
:10410000FDF7B8FC2B7A020081493800A047012056
:1041100069B0F0BCBB46B246A946A046F0BDCB692B
:104120008E6998460B6A02930B6899464B68059313
:104130005B4215938B680893CB680993207A032818
:1041400000D1F9E1072800D1E8E07D69FDF792FC94
:10415000237A02006E493800A8470120D8E7434679
:104160001B78012B00D1E2E1032B00D1FFE2022BEF
:1041700000D1B6E3674B9A46674B9B46290020A8BF
:1041800003F0C4FB2B68049D26A829000C9303F0C0
:10419000BDFB2B68039D2CA82900059303F0B6FBFB
:1041A0002B68210032A8049303F0B0FB002C00D050
:1041B0002468329B269A0A930F925A1E052B00DC24
:1041C000D0E233980123089300239A4200D1ADE254
:1041D00099004158089D01334D430A990895994229
:1041E000F3DC0F998B1E052900DCA5E227999B00C3
:1041F0005B5802910A99052900DCA6E233999200E6
:104200005258934200DD13000F994A1E052900DC25
:10421000A1E22799920052589146089A002A5BDD44
:10422000002B59DD9B0003934B469B000993002311
:10423000029407930E930C9A0024944600264F464E
:10424000079B9B0063440693002F00DC67E2059AFE
:10425000B3009146994400230025984642464B46B8
:104260009958069B98580CF0A0FB011C281C0CF0D8
:1042700085FB04239C46099BE044051C9845EDD131
:10428000049B002B00D14FE21859291C0CF076FB3F
:104290005946051C0CF0C0FB002800D05D46514675
:1042A000281C0CF0CFFB029B002800D02CE21D51F3
:1042B000039B0434F6199C42C6D119008C46B946BA
:1042C000029A0E9B62440292079A01334A44079273
:1042D000089A0E939A42AED10A9B052B00DD24E189
:1042E0002C9B052B00DD20E10F9B052B00DD1CE145
:1042F000209B052B00DD18E1002009E7039B2A0025
:1043000000933800049B0194FFF7B0FC00E7C0461F
:10431000DC170910FFFF7F7FFFFF7FFF290050A8F8
:1043200003F0F4FA049F56A839002D6803F0EEFA62
:104330003B68039F5CA839001B9303F0E7FA3B68D6
:10434000210062A81C9303F0E1FA2368569A1D939A
:10435000629B1F9218935A1E052B00DC0EE2639895
:1043600001230F9300239A4200D173E29900415830
:104370000F9C01334C4318990F949942F3DC1F9919
:104380008B1E052900DCA6E257999B000391595822
:10439000189B052B00DC98E2639B9200D35819917F
:1043A000994200DD19931F9A531E052A00DC69E229
:1043B000579A9B009B589A460F9B002B00DCA7E066
:1043C0004346059A5B421A93D343DB171A400123F5
:1043D0009340013B07920C935A105B005B081493C7
:1043E000199B77420E92002B00DC91E0002316937C
:1043F00012934B46DB17089A0393029BBFB2D21A63
:104400000892099AAB46D31A099300231793159B78
:104410005546DB43DB171E934B46B84604931E9A62
:10442000159B1799134005931C9B169A99461D9B43
:104430001B9E9C4661448A4619998C46624416929A
:104440005200944663441792069368226B469B1869
:104450001F883B005F469B464B461C68002D0FDDC6
:1044600000225846B35CC3181BB29C466146BB5C35
:10447000013243441BB24B43E4189542F2D18346C8
:10448000059B9C40049B1A00A34200D17BE12000C5
:10449000039BE1170CF052FA002900DAB2E1802305
:1044A0000024DB05C01861414B00C00F18430122F6
:1044B000C31713400E9A0C9994460140634401229D
:1044C000994200DC0022534201221340079A104116
:1044D000089A1B18934200DA1300099A934200DDF0
:1044E0001300029A761994465246634413800423BB
:1044F0009C46023BE1449C46069BE2445345ABD1BB
:10450000BB46129B0F9A01331293AB44934286D160
:10451000189B052B09DC5C9B052B06DC1F9B052BE0
:1045200003DC509B052B00DCE6E673F05DFFD94B06
:104530009A4600239B4621E6290038A803F0E6F9B5
:104540002F68049D3EA8290003F0E0F92B68039D25
:1045500044A82900189303F0D9F92B6821004AA830
:10456000069303F0D3F923684A999C463E9D4A1E60
:10457000052900DD00E1002900DCBEE14BAC012390
:10458000AA46149300239A4200D15EE19800149D3C
:1045900020580133454314959942F4DC5546AB1E2F
:1045A000052D00DC8BE13F989B001B5803900529EB
:1045B00000DC7EE14B98920012581793934200DD85
:1045C00017926B1E052D00DC6CE13F9A9B009B58F7
:1045D0009B46149B002B00DC43E1059AD343DB1779
:1045E0001A4001239340013B0E920F935A105B0037
:1045F0005B081093179B0A92002B00DC31E100232B
:1046000016934B46DB170393159B6246DB43DB1780
:1046100019934B465D46C146B04604939346159B9D
:104620001999189E0B400793069B9A46179B5B446B
:1046300005933B00474698460024002D10DDB44604
:104640000022484646466346995CB35C091ADB1B68
:104650004B430132E4189542F5D1B0468146664697
:10466000069B002B03D053461B689C466444079B63
:104670009C40049B1A00A34200D198E02000039BB9
:10468000E1170CF05BF9002900DAA4E08023002494
:10469000DB05C01861414B00C00F18430122C3174E
:1046A00013400A9A0F9994460140634401229942AB
:1046B00000DC00225342012213400E9A1041029A5C
:1046C0001B189446089A6344934200DA1300099A2F
:1046D000934200DD13005A46137001239C460333B6
:1046E000E3449C46059BE24476195B45A4D14346CE
:1046F000B8461F00169B149A013316937F199342F4
:1047000000D1ADE0059A89E752461A51039B043463
:10471000F619A34200D1D0E5002F00DD97E5049BF8
:104720000025002B00D0AFE50020AEE50A99531C10
:10473000994200DD49E554E526A98C469B000A997B
:1047400063445B68052900DD58E532A98C46920078
:104750006244526855E526A98C469200624452682C
:1047600091465AE5002B00DCC1E033A82AE54A4B0C
:104770009A4600239B4601E54B9C00E7002B00DC9A
:10478000B8E063A8ECE5039B100019000CF0D6F824
:10479000002954DB80220023D2050A920B93802348
:1047A0001B069C4233D10E9B14993C4887E6039B21
:1047B000100019000CF0C2F800293ADB8022002317
:1047C000D2050C920D9380231B069C4208D10A9BB4
:1047D000109932486AE70124314B64420C930D94DE
:1047E0000C9A0D9B12184B41D91749004908129198
:1047F000002113911298139912184B415800D20FAF
:1048000010434BE70124264B64420A930B940A9A07
:104810000B9B12184B41D9174900490810910021F0
:1048200011911098119912184B415800D20F104352
:104830003DE601231A4A5B420C920D93C3E7012324
:10484000174A5B420A920B93A9E7531C994200DD79
:1048500099E6A3E61899531C994200DD83E58EE59D
:104860004A99052900DD60E6449B052B00DD5CE6E6
:104870003E9B052B00DD58E6389B052B00DD54E6FA
:10488000002045E456AA94469B0063445B689A4620
:1048900092E5C046FFFF7F7F0000C040FFFFFF7F23
:1048A000010000C03EAA92469B0053445B689B46B1
:1048B0008FE64AA882469200524452687DE63EA89E
:1048C00082469B0053445B6871E662AB9C46920053
:1048D0006244536863E556A98C469B00634459685B
:1048E00056E5FE239B059A46054B9B4646E401236D
:1048F000089376E401230F9341E5012314934EE6D8
:10490000000080BF0A4B0B4A30B51A6000225A6083
:104910001A615A619A61DA61020007499960074990
:10492000D96032CB32C232CB32C212CB12C230BDCE
:104930005C690120C13A0010CD3A0010A940001076
:1049400010B51C21836B984710BDC046F0B5454695
:1049500057464E46DE461C00E0B5CDB0569B82461B
:104960009846237A0E001500032B6CD021002EA848
:1049700002F0CCFF414634A802F0C8FF2E983499CB
:10498000052800DDA4E1329B052900DC9EE1359A73
:10499000D268934200DD130001222292052800DC38
:1049A0008FE12F9A506892682390249201222593D8
:1049B00026AF2692052900DC7EE1359A516892687F
:1049C0007960FB60B368BA603B93736831693A936E
:1049D0006B683D932B683C936B693E93AB693F9347
:1049E0002AAB994601234A462A93D360002351609B
:1049F000F1682093916029692193002904DB5346D3
:104A000050465B6C9847209042462368002A01D0AC
:104A100012689046424602924A46019700923AA98D
:104A200022AA20A806F0B0FB349B052B00DD67E12D
:104A30002E9B052B00DD63E14DB0F0BCBB46B246BA
:104A4000A946A046F0BD8B6846A812934B68139305
:104A50000B691493CB68210015930422AB5E169367
:104A60000022AB5E17936B691893AB69199302F040
:104A70004DFF2368414640A81A9302F047FF434682
:104A8000002B01D01B689846469B409A052B00DC02
:104A900033E1479908684199052A00DD0968834692
:104AA000884200DD8B46052B00DC24E14799C8686D
:104AB000052A00DC1DE14199C9688246884200DD73
:104AC0008A46052B00DC0FE14799486889681190F8
:104AD0001091052A00DCFEE0419B5A689B68069213
:104AE00007935B46002B00DC0AE10023994643460E
:104AF000D846D346CA4699465693069B002B00DCFF
:104B0000CFE0169B0B935B420C9300230A93534612
:104B1000C246D8469B46079B002B00DCAEE00B9AB2
:104B2000D34311009446DB171940119B149A634438
:104B30001B910593934200DD0592179B45460D930B
:104B40005B420E9300235E460993002D00DC84E057
:104B50000D9AD34311009446DB171940109B08911E
:104B600063449B46159B9B4500DD9B46002398466E
:104B70005B465F464446089A9B1A1D93059B1B990A
:104B80008B4200DCBBE04A98499B489A43431C9304
:104B90000C9B72439C4662448C46499B624453433F
:104BA0000E9AA8469446089A634494461A9A634417
:104BB00094460A00002143431B196344A3460500A1
:104BC0000C000F9118001100089B9F4217DD9C46B6
:104BD000434602001E936346AC461F910F99157819
:104BE0008846A844454601330F9562449F42F5D15B
:104BF0001E9B654698461D9B1F999C4664441C9BC2
:104C000001319C46059B60448B42DDD10A9A429B50
:104C100094467343439A63445343099A210094464C
:104C2000449A63445A430F9B5C469C464810604438
:104C3000934645460BF00CFAA046189A0300C84468
:104C4000904200DA1300199A934200DD13004246A5
:104C5000594601345354A54290D113990E9A8C466B
:104C600062440E920D9A099B521A0D92079A0133D3
:104C70000993934200D068E7A846B34612990C9A6C
:104C80008C4662440C920B9A0A9B521A0B92069A1B
:104C900001330A93934200D03DE75B46C346D046BA
:104CA0009A4601239C46E244D04500DD25E7409B1F
:104CB000052B25DC469BBCE6369A05927A60379A2E
:104CC0007FE6309A05922392319A6EE6389A60E632
:104CD0002F9BDB6858E6429A0692439A07925A46FF
:104CE000002A00DD01E7A4E6489911914999109145
:104CF000EFE64499E1E64A98DAE64798CBE6FFDE2C
:104D000073F072FBF0B5DE46454657464E46884680
:104D1000E0B50B68CE688C68E5B05968436D070054
:104D2000984743465B680500596838007B6D984793
:104D30008046287A032814D0092800D1B3E201283C
:104D400000D15FE17C69FCF795FEAD4902003800B7
:104D5000A047012065B0F0BCBB46B246A946A046BC
:104D6000F0BDB36829001393736846A814933369A0
:104D70001593F368666916930422A35E0D930022CF
:104D8000A35EA4690E9302F0C1FD2B6841464CA8B6
:104D9000179302F0BBFD4346002B01D01B689846D9
:104DA000469B4C9A052B00DC3DE3479908684D99DA
:104DB000052A00DD09688246884200DD8A46052B07
:104DC00000DCEEE24799C868052A00DCE7E24D996D
:104DD000C9688346884200DD8B46052B00DCD9E29A
:104DE00047994868896811901091052A00DCBFE254
:104DF0004D9B59689B68894609935346002B00DCFC
:104E00004FE2002900DC4CE2099B002B00DCEDE0C6
:104E10005B46002B00DCE9E0694674200D9B091815
:104E20005B421B930E9B00255B421C93F3B20B70FD
:104E3000199378216B46E2B25B181A921A704A46AF
:104E4000C146D846AB461B9B4046079300230B93B5
:104E50005B46CB469846D14692460D9DEB43DB1709
:104E60002B400893119B159A9C46AC4463460593CE
:104E7000934200DD05921C9B2F00069300230A93AA
:104E80005346CA4699460E9C0C90E343DB172340D9
:104E90000F93109B1E19169B9E4200DD1E000C9B5B
:104EA00000259C4640461296059A089B9A4200DCD3
:104EB0005CE24A99079B0A009846499E089B724308
:104EC0000C92489A18914243424498463300424417
:104ED0005343069A129E90460F9A43449046179A5F
:104EE000434490464B43089A5B19434490466246BC
:104EF0001F924246A046040000215846A3460F9C3C
:104F0000A64213DD9C461292209363461B781A1C1E
:104F10008B4200D20A1CD1B2189A634694460134DF
:104F200063449C46A642F0D1129A209B0C9C01320D
:104F3000A446059C63449442E1D11F9B44469C4691
:104F40005B468346180012960B9B4E9A9846424346
:104F50004F9B42445A430A9B74269846509B4244B6
:104F60005A432B005B440C936B469B19199E1B788C
:104F70008E4200D20B1CD9B288461A99884503D9B3
:104F80006B4678215B181B780C9901358B54AC4526
:104F90008AD16346149A069994460C930A9BA41AE4
:104FA000099A0133614480460A9306919A4200D0DF
:104FB0006BE74B46139AD14694469A4607990B9B4A
:104FC000614401330C980B93BD1A0791534500D0EF
:104FD00044E743465246CA46D9469B4601239C466F
:104FE000E3448046DA4500DD2DE74C9A052A00DDD2
:104FF00057E1469B052B00DD53E10020AAE6C046A1
:10500000C81A0910337D012B00D108E2032B00D10F
:1050100001E2022B00D108E2DC4BDD4F9B46B36876
:1050200029001B9373683AA81C9333691D93F36896
:105030001E930422A35E13930022A35E149302F036
:1050400065FC2B68414640A81F9302F05FFC434675
:10505000002B01D01B6898463A9B409A0993059211
:10506000052B00DCD5E13B9B1A68059B052B00DC7A
:10507000CDE1419B1B6892469A4200DD9A46099B0E
:10508000052B00DCC1E13B9BDA68059B052B00DCAE
:10509000B9E1419BDB6891469A4200DD9946099B44
:1050A000052B00DCAAE13B9B5A689B681A92169379
:1050B000059B052B00DC90E1419B5A689B6806929A
:1050C00007935346002B00DCEBE0002A00DCE8E00D
:1050D000079B002B00DCE4E04B46002B00DCD9E012
:1050E0003C9B3E9A24933D9B2692239353439B00E3
:1050F00028939300259300230893139B5B422993E5
:10510000149B5B422A934346B8462B93139B089A01
:105110001193299B1093249B5343219300230C93B9
:105120004346D8469B46119AD34311009446DB1759
:1051300019401A9B1D9A634417910D93934200DD09
:105140000D92109A149B94460A932A9B179A1293D5
:10515000219B63449446239A63445A4300230B9350
:105160005346CA46994622920A9AD343110094465E
:10517000DB171940169B1E9A634418910E939342B5
:1051800000DD0E92089A429B002653430C9A9446E7
:10519000439A634453430B9A9446449A634453435B
:1051A0000F922B9A9B00D718129A229B9446189A1A
:1051B00063449446269A63445A432792179A0D9B58
:1051C0009A4200DB00E11F99279B8C46F3189B0055
:1051D00063446E4C0F931992189B0E9A934213DA04
:1051E0000F9D15932B68201C191C20930BF014FCA9
:1051F000002800D0209C259A159B94460E9A0133D6
:10520000159365449342EDD128990F9A8C46199BCA
:1052100062440F920D9A013319939342DCD14046B8
:10522000211C0BF00FFC002800D044465946201CDE
:105230000BF008FC002800D0C8E0013610C7B245CA
:10524000BCD11C9A0A999446891A0B9B0A9112990F
:10525000079A013361440B931291934284D14B46D8
:105260001B9A11999446891AD14611919A46109920
:105270000C9B069A013361440C931091934200D029
:1052800051E75B46C3469846089B01330893534554
:1052900000DA3BE7059B052B03DC099B052B00DCB3
:1052A000ABE673F0A1F8290052A802F02FFB58A832
:1052B000414602F02BFB5298052800DD81E0569B09
:1052C000589905297BDD599AD268934200DD130075
:1052D00001222E9205286DDD539A506892682F9016
:1052E000309232AA914601223193329205295ADD39
:1052F0004946599A5068926848604946CB60B368FD
:105300008A605F93736831695E9363686193236811
:10531000609363696293A369639336AB9A460123F2
:10532000524636935160F168D36000239160216941
:105330002C932D93002903DB38007B6C98472C902D
:1053400042462B68002A01D01268904642460292DB
:105350004A46019252465EA900922CA82EAA06F057
:10536000BDF8589B052B9CDC529B43E60021EBE5E6
:105370004E9989464F9909915146002900DC39E63A
:105380004946002900DD3FE534E6C046FFFF7FFFC8
:10539000FFFF7F7F489911914999109125E5509918
:1053A00017E54A9810E55A9A05924A4605995160C0
:1053B0005B9AA2E7549A05922F92559A90E75C9ACD
:1053C00083E7539BDB687BE71A4C28E75B46013693
:1053D00008C7B24500D0F1E633E7429B0693439BF2
:1053E00007935346002B00DC57E7069B002B00DC9D
:1053F00053E7079B002B00DD6EE64EE73C9B1A93BC
:105400003D9B169354E6449B45E63E9A3DE6419B00
:1054100031E63B9A29E60023074F9B46FFE5002330
:10542000064F9B46FBE54798C1E4FE27044BBF05AA
:105430009B46F4E5FFFF7FFF0000C040FFFF7F7F3A
:10544000000080BFF0B5DE4657464E464546E0B503
:10545000002293B0CF680C0080468E68FCF7C8FE2F
:105460008146002221004046FCF7D8FE4B465B698E
:10547000BD689A68DB6893469A463B697C680293EC
:10548000FB68059003933B78012B00D17DE0022B54
:105490003BD1029B50192900C01A0AF0D9FD431EC6
:1054A000049353461819039B2100C01A0AF0D0FD3B
:1054B0000138049B44435D43029B01209C465B46AC
:1054C0006544ED1AEB43DB171D40039B9C46534696
:1054D0006444E41AE343DB171C40631033606B1031
:1054E00073604B4604400540B460F5601B7F012BA0
:1054F0000FD1012300245B423361200013B0F0BCC4
:10550000BB46B246A946A046F0BD012040420490E9
:10551000CFE733001833397D40460093059A043BAA
:10552000FCF720FF041EE8D14B4601221B7F5242AC
:105530003261092BE1D14B46596904C90692052A0B
:1055400038DC920007A80BF079FB059B002B2BD0D1
:10555000596904C90C92052A2CDC92000DA80BF0A5
:105560006DFB109B0A99994200DD19000F9805F018
:10557000B3FF011E1ADD3200434640461B6C103259
:1055800098470028B9D00400B7E75019290001381E
:105590000AF05EFD431E049353461819210001389A
:1055A0000AF056FD013884E70C94DAE701235B42E8
:1055B0003361A2E772F018FFF0B5DE464546574664
:1055C0004E468846E0B50B68CE688D68BBB059681A
:1055D000436D0700984743465B68040059683800EC
:1055E0007B6D98478046207A032812D0092810D076
:1055F000012818D07C69FCF73DFAD7490200380031
:10560000A04701203BB0F0BCBB46B246A946A0462D
:10561000F0BD43462A000093310023003800FFF715
:1056200095F90020EEE7337D012B0AD0032B00D142
:105630008CE1022B00D197E1C84B9A46C84B9946A2
:1056400003E0C64B9A4600239946B3682100229393
:1056500073682EA8239333692493F3682593042257
:10566000AB5E14930022AB5E159302F04FF92368F2
:10567000414634A8269302F049F94346002B01D055
:105680001B6898462E9B349A08930292052B00DCE7
:105690005AE12F9B1A68029B052B00DC52E1359BD7
:1056A0001B6803929A4200DD0393089B052B00DCE4
:1056B00046E12F9BDA68029B052B00DC3EE1359B1F
:1056C000DB6805929A4200DD0593089B052B00DC00
:1056D0002FE12F9B5A689B6820921893029B052B01
:1056E00000DC12E1359B58689B6816900493039B7D
:1056F000002B00DC01E1309A389C1A92319A369BDB
:105700000A923799329A0C94002800DCF5E004984C
:10571000002800DCF1E00598002800DCE6E00C98A9
:105720004B4304005C430A9BC34653439B002893AE
:10573000930021930023139312931D93149B4843CA
:105740005B422B93159B2A945B4229902C93149BCC
:105750000F932B9B1093139B119300231C93534681
:10576000DA469B460F9AD34311009446DB17194043
:10577000209B249A63441F910D93934200DD0D9268
:10578000129A159B944609932C9B1F9A0793109B82
:10579000D046634494460A9A63445A43119B279225
:1057A000069300231B93099AD34311009446DB17F9
:1057B0001940189B259A63441E910B93934200DD78
:1057C0000B92279A069B94469B0043441E9A9A4646
:1057D000079B002663449446219A63445343269AC8
:1057E000D7181F9B0D9A934200DB8BE000240E9785
:1057F0001793251C2D961E9B0B9A934215DA0E9E2D
:1058000019933168281C0BF0B9F8FE21051C890595
:10581000201C0BF0B3F8219A199B94460B9A013384
:10582000041C199366449342EBD128990E9A8C4636
:10583000179B62440E920D9A013317939342DAD16B
:105840002D9E211C281C0BF09CF84946041C0BF0D3
:10585000E3F8002800D04C465946201C0BF0F2F823
:10586000534600284BD110C39A46059B0136043796
:105870009E42B6D1239A09999446891A09910799AB
:10588000069A614407910C991B9B8C4662440692D0
:10589000049A01331B939A4285D1229A0F99944618
:1058A000891A0F911099119A6144109129991C9BA2
:1058B0008C4662441192169A0133C2461C9393425D
:1058C00000D04FE71A99129A8C462A995B46624497
:1058D0008C461292139AD34662449A461D9B1392A9
:1058E000039A01331D939A4200DD30E7029B052B9A
:1058F00003DC089B052B00DC93E672F075FD5A462D
:1059000004C3B1E70024251C9BE7379A369B049219
:10591000039A002AEDDD309A38991A92319A0C9147
:105920000A92329A002BE4DD04990029E1DD1693F6
:10593000F1E6309B2093319B1893CFE6389BC0E66D
:10594000329AB8E6359BACE62F9AA4E6054B9A4608
:105950000023994679E6C046EC1A0910FFFF7F7FC5
:10596000FFFF7FFF0000C040FE239B059A46014BCE
:1059700099466AE6000080BFF0B5DE4657464E46BF
:105980004546E0B5002287B0CD68884606008C68A1
:10599000FCF72EFC0700002241463000FCF73EFCDD
:1059A0007B6905909A68DB6893469A46AB6899468E
:1059B0006B6898462B690293EB6803932B78012B55
:1059C0004ED0022B3CD11000029B48444946C01ADD
:1059D0000AF03EFB431E50460493039B4044C01A0A
:1059E00041460AF035FB431E4946049A01204A43CA
:1059F00002998C4659466244521AD143C9170A404B
:105A000041464B4303998C46514663445B1AD94344
:105A1000C9170B40591021600340511010406160BC
:105A2000A360E0603B7F012B0ED1012300205B428D
:105A3000236107B0F0BCBB46B246A946A046F0BD04
:105A400001235B420493CFE723001833297D300004
:105A50000093059A043BFCF785FC0028E5D0E8E7B5
:105A600010004844494601380AF0F2FA431E5046F5
:105A700040444146013804930AF0EAFA431EB3E772
:105A8000020030B5044B203332CB32C232CB32C2AB
:105A900012CB12C230BDC046181B091010B53821F8
:105AA000836B984710BDC046F0B54546DE46574665
:105AB0004E46E0B50B6804001B680D008DB0012B4D
:105AC00015D00293A14B01220193A14B03920093A5
:105AD0006223456920009F4A9F49A8470127380053
